:100000000C942A000C9447000C9447000C94470071
:100010000C9447000C9447000C9447000C94470044
:100020000C9447000C9447000C9447000C94470034
:100030000C9447000C9447000C9447000C94470024
:100040000C9447000C9447000C9447000C94470014
:100050000C94470011241FBECFE5D8E0DEBFCDBF12
:1000600010E0A0E6B0E0E2E1FBE002C005900D92F6
:10007000A238B107D9F720E0A2E8B0E001C01D9294
:10008000A538B207E1F70E943B020C9487050C9457
:1000900000000F931F93CF93DF938B01D42F880F12
:1000A0000E946A02882351F0C1E00CC0F801EC0FF5
:1000B000F11D80810E948F02CF5F01C0C0E0CD178B
:1000C000A8F3C0E00E9489028C2FDF91CF911F918D
:1000D0000F9108950F931F93CF93DF9300D000D01B
:1000E0001F92CDB7DEB7082F683071F4882311F066
:1000F00088E001C080E08093600041E060E670E04D
:1001000087E20E94490026C080916000162F182BBC
:100110001983802F807F812B84608A838B7F8B83E0
:1001200020E1029FC0011124812B84608C838B7F8E
:100130008D8345E0BE016F5F7F4F87E20E944900DB
:1001400010FD08C0033030F4E3EFF1E03197F1F730
:1001500000C000000F900F900F900F900F90DF9154
:10016000CF911F910F910895CF93DF93D82FC62F72
:10017000E62FF0E0EF59FF4F80818D2B60E0806823
:100180000E946A00D0938300C0938400DF91CF91D6
:10019000089560E081E00E946A001092840010924D
:1001A00083000895CF93C82F90918300809182009F
:1001B000981710F4CA3041F4609184006F5F609327
:1001C000840080E00E94B400CA3049F0809183002E
:1001D0008F5F8093830061E08C2F0E946A00CF9133
:1001E0000895CF93DF93EC0103C021960E94D200C3
:1001F00088818111FACFDF91CF9108950F931F93DA
:10020000CF93DF9300D000D000D0CDB7DEB7082F5A
:1002100080E3898394E39A838B8380E28C8394E2E6
:100220009D838E8380E180938200E1E6F0E080810F
:10023000805F82838181805F838387B3806287BB95
:1002400088B3806288BB0E9466028BE49DE10197BF
:10025000F1F700C0000043E0BE016F5F7F4F87E20F
:100260000E944900182F81EE94E00197F1F700C039
:10027000000043E0BE016F5F7F4F87E20E944900AC
:10028000182B43E0BE016F5F7F4F87E20E94490059
:10029000182B43E0BE016C5F7F4F87E20E9449004C
:1002A000182B60E088E20E946A00812B19F088B365
:1002B0008F7D88BB60E08CE00E946A0060E086E091
:1002C0000E946A0060E081E00E946A0060E0802F86
:1002D0000E946A0026960FB6F894DEBF0FBECDBF0F
:1002E000DF91CF911F910F91089568E00E946A00FD
:1002F000089585B38F7785BB84B3806884BB80EA1B
:100300008A95F1F784B38F7784BB94E19A95F1F7DE
:1003100083B380789CE89A95F1F7089595B39F7719
:1003200095BB94B3906894BB0000882319F084B304
:100330008F7784BB84E18A95F1F784B38F7784BB90
:10034000089585B38F7785BB84B3806884BB000034
:1003500084B38F7784BB84E08A95F1F700C09F99BE
:1003600002C080E001C081E09FE09A95F1F7089516
:10037000CF93DF9380E098E00AC0C82FC6950E9413
:10038000A10120E8829FC00111248C2B9D2FDFEF5B
:10039000D90F9111F2CFDF91CF910895CF93DF93D1
:1003A000C82F88E006C08C2F81700E948E01C695F0
:1003B0008D2FDFEFD80F8111F6CFDF91CF91089508
:1003C0000F931F93CF93DF93CDB7DEB72E970FB662
:1003D000F894DEBF0FBECDBF0E9479018CEC0E9465
:1003E000CE0184E40E94CE010E94A1018823E1F3A2
:1003F0000E9479018CEC0E94CE018EEB0E94CE010E
:100400000E94B801082F0E94B801182F0E9479019C
:10041000202F22952F70177030E1139FC0011124F7
:10042000822B1F920F93282F082E000C330B3F9323
:100430008F9385E690E09F938F938E010F5F1F4F00
:100440001F930F930E949D0261E080E00E94B40020
:10045000C8010E94F1000FB6F894DEBF0FBECDBFF9
:100460002E960FB6F894DEBF0FBECDBFDF91CF91B1
:100470001F910F91089582E00E94FE0080E00E948B
:1004800075018FE493EC0197F1F700C0000081E063
:100490000E9475018FE493EC0197F1F700C0000012
:1004A0000E94C90060E080E00E94B40080E790E014
:1004B0000E94F1000E94E0019FE32DE083E0915053
:1004C00020408040E1F700C00000F4CF11B88CE07C
:1004D00080B9089594EA96BF06B607FEFDCF91B1A4
:1004E000987F983011F0903171F483B984E886BF19
:1004F00006B607FEFDCF81B1887F883131F08034A8
:1005000031F480E0089581E0089580E0089581E06D
:10051000089584E986BF06B604FCFDCF089583B92B
:1005200084E886BF06B607FEFDCF81B1887F88329A
:1005300011F081E0089580E00895AEE0B0E0E3EAD4
:10054000F2E00C945E050D891E8986E08C831A8387
:1005500009838FEF9FE79E838D83AE01475E5F4FD8
:100560006F89788DCE0101960E94BF02EF81F885D8
:10057000E00FF11F10822E96E4E00C947A05ABE0B8
:10058000B0E0E5ECF2E00C9450056C017B018A01CF
:10059000FC0117821682838181FFCCC1CE010196B6
:1005A0003C01F6019381F70193FD859193FF8191C1
:1005B0007F01882309F4BAC1853239F493FD85910E
:1005C00093FF81917F01853229F4B60190E00E946A
:1005D000B604E7CF912C212C312CFFE1F315D8F094
:1005E0008B3279F038F4803279F08332A1F4232D04
:1005F00020611DC08D3261F0803369F4232D2160AC
:1006000016C0832D8260382EE32DE4603E2E2AC072
:10061000F32DF8601DC037FC2DC020ED280F2A30C7
:1006200040F08E32B9F436FC81C1232D2064322E85
:1006300019C036FE06C08AE0989E200D1124922E25
:1006400011C0EAE02E9E200D1124222EF32DF0621F
:100650003F2E08C08C3621F4832D8068382E02C0CE
:10066000883641F4F70193FD859193FF81917F01D5
:100670008111B3CF982F9F7D9554933028F40C5F50
:100680001F4F9FE399830DC0833631F0833771F09C
:10069000833509F059C021C0F801808189830E5F3C
:1006A0001F4F88248394912C530113C02801F2E03A
:1006B0004F0E511CF801A080B18036FE03C0692D99
:1006C00070E002C06FEF7FEFC5010E94AB044C01E8
:1006D0008201F32DFF773F2E16C0280122E0420E43
:1006E000511CF801A080B18036FE03C0692D70E076
:1006F00002C06FEF7FEFC5010E94A0044C01F32DF3
:10070000F0683F2E820133FC1BC0822D90E08816DA
:100710009906B0F4B60180E290E00E94B6042A94F3
:10072000F4CFF50137FC859137FE81915F01B60169
:1007300090E00E94B60421102A9421E0821A9108C8
:100740008114910471F7E8C0843611F0893641F5BF
:10075000F80137FE07C060817181828193810C5F4F
:100760001F4F08C060817181072E000C880B990B08
:100770000E5F1F4FF32DFF763F2E97FF09C0909518
:100780008095709561957F4F8F4F9F4FF0683F2EFA
:100790002AE030E0A3010E94F204882E861845C0AA
:1007A000853731F4232D2F7EB22E2AE030E025C08C
:1007B000932D997FB92E8F36C1F018F4883579F0D2
:1007C000B5C0803719F0883721F0B0C0E92FE0615B
:1007D000BE2EB4FE0DC0FB2DF460BF2E09C034FE4A
:1007E0000AC0292F2660B22E06C028E030E005C0DE
:1007F00020E130E002C020E132E0F801B7FE07C09E
:1008000060817181828193810C5F1F4F06C060817E
:10081000718180E090E00E5F1F4FA3010E94F204FF
:10082000882E8618FB2DFF773F2E36FE0DC0232D18
:100830002E7FA22E891458F434FE0BC032FC09C05E
:10084000832D8E7EA82E05C0B82CA32C03C0B82CF7
:1008500001C0B92CA4FE0FC0FE01E80DF11D80817E
:10086000803321F49A2D997EA92E09C0A2FE06C0DC
:10087000B394B39404C08A2D867809F0B394A3FC92
:1008800011C0A0FE06C0B21488F4280C922C9B184C
:100890000EC0B21460F4B60180E290E00E94B6048B
:1008A000B394F7CFB21418F42B1802C0982C212C53
:1008B000A4FE10C0B60180E390E00E94B604A2FE40
:1008C00017C0A1FC03C088E790E002C088E590E073
:1008D000B6010CC08A2D867859F0A1FE02C08BE2C9
:1008E00001C080E2A7FC8DE2B60190E00E94B60450
:1008F000891438F4B60180E390E00E94B6049A941B
:10090000F7CF8A94F301E80DF11D8081B60190E0E4
:100910000E94B6048110F5CF222009F442CEB60120
:1009200080E290E00E94B6042A94F6CFF601868118
:10093000978102C08FEF9FEF2B96E2E10C946C053C
:10094000FC010590615070400110D8F7809590959A
:100950008E0F9F1F0895FC0161507040019001109F
:10096000D8F7809590958E0F9F1F08950F931F9332
:10097000CF93DF93FB01238121FD03C08FEF9FEF16
:100980002CC022FF16C04681578124813581421731
:10099000530744F4A081B1819D012F5F3F4F318304
:1009A00020838C93268137812F5F3F4F37832683A7
:1009B00014C08B01EC01FB010084F185E02D099549
:1009C000892BE1F6D80116968D919C911797019687
:1009D00017969C938E931697CE01DF91CF911F911E
:1009E0000F910895FA01AA27283051F1203181F1A1
:1009F000E8946F936E7F6E5F7F4F8F4F9F4FAF4F27
:100A0000B1E03ED0B4E03CD0670F781F891F9A1F39
:100A1000A11D680F791F8A1F911DA11D6A0F711DED
:100A2000811D911DA11D20D009F468943F912AE0F9
:100A3000269F11243019305D3193DEF6CF010895E1
:100A4000462F4770405D4193B3E00FD0C9F7F6CF12
:100A5000462F4F70405D4A3318F0495D31FD4052DA
:100A6000419302D0A9F7EACFB4E0A6959795879570
:100A700077956795BA95C9F700976105710508954F
:100A80009B01AC010A2E06945795479537952795FB
:100A9000BA95C9F7620F731F841F951FA01D089593
:100AA0002F923F924F925F926F927F928F929F927E
:100AB000AF92BF92CF92DF92EF92FF920F931F936C
:100AC000CF93DF93CDB7DEB7CA1BDB0B0FB6F8941D
:100AD000DEBF0FBECDBF09942A88398848885F845D
:100AE0006E847D848C849B84AA84B984C884DF80CE
:100AF000EE80FD800C811B81AA81B981CE0FD11DB2
:100B00000FB6F894DEBF0FBECDBFED010895F89487
:020B1000FFCF15
:100B12000880C00000252B642E2530347520430048
:100B2200647331386232302072656164696E673A8B
:020B32000000C1
:00000001FF
