S01100004865617274426561742E73726563A3
S11300000C942A000C9447000C9447000C9447006D
S11300100C9447000C9447000C9447000C94470040
S11300200C9447000C9447000C9447000C94470030
S11300300C9447000C9447000C9447000C94470020
S11300400C9447000C9447000C9447000C94470010
S11300500C94470011241FBECFE5D8E0DEBFCDBF0E
S113006010E0A0E6B0E0EAE7F5E002C005900D92EA
S1130070A838B107D9F720E0A8E8B0E001C01D9284
S1130080AB38B207E1F70E9491010C94BB020C94C7
S113009000000F931F93CF93DF938B01D42F880F0E
S11300A00E944802882351F0C1E00CC0F801EC0F13
S11300B0F11D80810E946D02CF5F01C0C0E0CD17A9
S11300C0A8F3C0E00E9467028C2FDF91CF911F91AB
S11300D00F9108950F931F93CF93DF9300D000D017
S11300E01F92CDB7DEB7082F683071F4882311F062
S11300F088E001C080E08093600041E060E670E049
S113010087E20E94490026C080916000162F182BB8
S11301101983802F807F812B84608A838B7F8B83DC
S113012020E1029FC0011124812B84608C838B7F8A
S11301308D8345E0BE016F5F7F4F87E20E944900D7
S113014010FD08C0033030F4E3EFF1E03197F1F72C
S113015000C000000F900F900F900F900F90DF9150
S1130160CF911F910F910895CF93DF93D82FC62F6E
S1130170E62FF0E0EF59FF4F80818D2B60E080681F
S11301800E946A00D0938900C0938A00DF91CF91C6
S1130190089560E081E00E946A0010928A00109243
S11301A089000895CF93C82F909189008091880089
S11301B0981710F4CA3041F460918A006F5F60931D
S11301C08A0080E00E94B400CA3049F0809189001E
S11301D08F5F8093890061E08C2F0E946A00CF9129
S11301E00895CF93DF93EC0103C021960E94D200BF
S11301F088818111FACFDF91CF9108950F931F93D6
S1130200CF93DF9300D000D000D0CDB7DEB7082F56
S113021080E3898394E39A838B8380E28C8394E2E2
S11302209D838E8380E180938800E1E6F0E0808105
S1130230805F82838181805F838387B3806287BB91
S113024088B3806288BB0E9444028BE49DE10197DD
S1130250F1F700C0000043E0BE016F5F7F4F87E20B
S11302600E944900182F81EE94E00197F1F700C035
S1130270000043E0BE016F5F7F4F87E20E944900A8
S1130280182B43E0BE016F5F7F4F87E20E94490055
S1130290182B43E0BE016C5F7F4F87E20E94490048
S11302A0182B60E088E20E946A00812B19F088B361
S11302B08F7D88BB60E08CE00E946A0060E086E08D
S11302C00E946A0060E081E00E946A0060E0802F82
S11302D00E946A0026960FB6F894DEBF0FBECDBF0B
S11302E0DF91CF911F910F91089568E00E946A00F9
S11302F008951ABA80E687B985E886B9089586B163
S1130300806486B93699FECF24B122952695269528
S1130310237085B190E0880F991F880F991F822B55
S11303200895CF93DF93CDB7DEB72E970FB6F89429
S1130330DEBF0FBECDBF82E00E94FE0080E00E94BF
S113034075018FE493EC0197F1F700C0000081E0A0
S11303500E9475018FE493EC0197F1F700C000004F
S11303600E94C9008FEF81BB84BB1ABA0E94790135
S113037060E080E00E94B40085E690E00E94F10015
S113038060E08DE00E94B40082E790E00E94F100FA
S11303909FE72AE186E0915020408040E1F700C0C9
S11303A0000060E08DE00E94B40084E790E00E94C9
S11303B0F1009FE322E48FE0915020408040E1F778
S11303C000C0000060E08DE00E94B40086E790E089
S11303D00E94F100E12CF12CC12CD12C00E010E0A2
S11303E01CC080E00E947F018732924048F0EF28D1
S11303F051F48FEFC81AD80AEE24E394F12C05C007
S1130400E12CF12C02C0E12CF12C8FE493EC019748
S1130410F1F700C000000F5F1F4F083211050CF305
S11304200E94C9008AE0EDE7F0E08E010F5F1F4FE4
S1130430D80101900D928A95E1F7C601880F991FA2
S11304408C0D9D1D880F991F4AE0BE01655F7F4F8B
S11304500E948602BE01655F7F4FC8010E947B0235
S1130460D8010D900020E9F7119785E0E8E7F0E066
S113047001900D928A95E1F761E080E00E94B4005A
S1130480C8010E94F10074CF11B88CE080B90895BE
S113049094EA96BF06B607FEFDCF91B1987F9830D7
S11304A011F0903171F483B984E886BF06B607FE73
S11304B0FDCF81B1887F883131F0803431F480E020
S11304C0089581E0089580E0089581E0089584E925
S11304D086BF06B604FCFDCF089583B984E886BFC1
S11304E006B607FEFDCF81B1887F883211F081E026
S11304F0089580E00895FB01DC010D900020E9F7E8
S1130500119701900D920020E1F70895BB274A301E
S113051031F4992322F4BDE2909581959F4F0C9478
S11305209202BB27FB015527AA27880F991FAA1FF0
S1130530A41710F0A41B83955051B9F7A05DAA33FA
S113054008F0A95DA193009779F7B111B1931192C5
S1130550CB010C94AB02DC01FC01672F7191772372
S1130560E1F7329704C07C916D9370836291AE176A
S10D0570BF07C8F30895F894FFCF05
S113057A0880C0000050756C7365204D65746572FF
S113058A3A005300500057002062706D00482E5202
S10B059A617465202D200000AE
S9030000FC
