S0120000496E74656772617465642E737265630B
S11300000C942A000C9447000C9447000C9447006D
S11300100C9447000C9447000C9447000C94470040
S11300200C9447000C9447000C9447000C94470030
S11300300C9447000C9447000C9447000C94470020
S11300400C9447000C9447000C9447000C94470010
S11300500C94470011241FBECFE5D8E0DEBFCDBF0E
S113006010E0A0E6B0E0EEE5FFE002C005900D92DE
S1130070AE37B107D9F720E0AEE7B0E001C01D927A
S1130080AF3AB207E1F70E9417030C94AD070C9442
S113009000000F931F93CF93DF938B01D42F880F0E
S11300A00E943304882351F0C1E00CC0F801EC0F26
S11300B0F11D80810E945804CF5F01C0C0E0CD17BC
S11300C0A8F3C0E00E9452048C2FDF91CF911F91BE
S11300D00F9108950F931F93CF93DF9300D000D017
S11300E01F92CDB7DEB7082F683071F4882311F062
S11300F088E001C080E08093600041E060E670E049
S113010087E20E94490026C080916000162F182BB8
S11301101983802F807F812B84608A838B7F8B83DC
S113012020E1029FC0011124812B84608C838B7F8A
S11301308D8345E0BE016F5F7F4F87E20E944900D7
S113014010FD08C0033030F4E3EFF1E03197F1F72C
S113015000C000000F900F900F900F900F90DF9150
S1130160CF911F910F910895CF93DF93D82FC62F6E
S1130170E62FF0E0EF59FF4F80818D2B60E080681F
S11301800E946A00D0938200C0938300DF91CF91D4
S1130190089560E081E00E946A001092830010924A
S11301A082000895CF93C82F90918200809181009E
S11301B0981710F4CA3041F4609183006F5F609324
S11301C0830080E00E94B400CA3049F0809182002C
S11301D08F5F8093820061E08C2F0E946A00CF9130
S11301E00895CF93DF93EC0103C021960E94D200BF
S11301F088818111FACFDF91CF9108950F931F93D6
S1130200CF93DF9300D000D000D0CDB7DEB7082F56
S113021080E3898394E39A838B8380E28C8394E2E2
S11302209D838E8380E180938100E1E6F0E080810C
S1130230805F82838181805F838387B3806287BB91
S113024088B3806288BB0E942F048BE49DE10197F0
S1130250F1F700C0000043E0BE016F5F7F4F87E20B
S11302600E944900182F81EE94E00197F1F700C035
S1130270000043E0BE016F5F7F4F87E20E944900A8
S1130280182B43E0BE016F5F7F4F87E20E94490055
S1130290182B43E0BE016C5F7F4F87E20E94490048
S11302A0182B60E088E20E946A00812B19F088B361
S11302B08F7D88BB60E08CE00E946A0060E086E08D
S11302C00E946A0060E081E00E946A0060E0802F82
S11302D00E946A0026960FB6F894DEBF0FBECDBF0B
S11302E0DF91CF911F910F91089568E00E946A00F9
S11302F008951ABA80E687B985E886B9089586B163
S1130300806486B93699FECF24B122952695269528
S1130310237085B190E0880F991F880F991F822B55
S1130320089510BC8CE089B982E08BB988E18AB960
S113033086E880BD08955D9BFECF8CB90895CF9368
S1130340DF93C0E0D0E003C00E949B012196FE0130
S1130350EF55FF4F80818111F7CF2FE38DE093E0BC
S1130360215080409040E1F700C00000C0E0D0E0A0
S113037003C00E949B012196FE01EC57FF4F808130
S11303808111F7CF2FE38DE093E02150804090401E
S1130390E1F700C00000C0E0D0E003C00E949B0170
S11303A02196FE01E655FF4F80818111F7CF2FE39F
S11303B08DE093E0215080409040E1F700C00000C0
S11303C0C0E0D0E003C00E949B012196FE01E757E4
S11303D0FF4F80818111F7CF2FE38DE093E021500F
S11303E080409040E1F700C00000C0E0D0E003C0CE
S11303F00E949B012196FE01E456FF4F80818111EA
S1130400F7CF2FE38DE093E0215080409040E1F757
S113041000C00000C0E0D0E003C00E949B01219610
S1130420FE01E257FF4F80818111F7CF2FE38DE06A
S113043093E0215080409040E1F700C00000DF913C
S1130440CF91089585B38F7785BB84B3806884BBCF
S113045080EA8A95F1F784B38F7784BB94E19A9507
S1130460F1F783B380789CE89A95F1F7089595B3F2
S11304709F7795BB94B3906894BB0000882319F0D0
S113048084B38F7784BB84E18A95F1F784B38F7743
S113049084BB089585B38F7785BB84B3806884BBA0
S11304A0000084B38F7784BB84E08A95F1F700C0A1
S11304B09F9902C080E001C081E09FE09A95F1F726
S11304C00895CF93DF9380E098E00AC0C82FC695C3
S11304D00E944A0220E8829FC00111248C2B9D2F88
S11304E0DFEFD90F9111F2CFDF91CF910895CF9320
S11304F0DF93C82F88E006C08C2F81700E943702DA
S1130500C6958D2FDFEFD80F8111F6CFDF91CF91F4
S11305100895CF93DF930E9422028CEC0E9477020D
S113052084E40E9477020E944A028823E1F30E9435
S113053022028CEC0E9477028EEB0E9477020E94CA
S11305406102D82F0E946102C82F0E9422022D2F1F
S113055022952F70C77030E1C39FC0011124282B4E
S11305608D2F90E06AE070E00E9466047F936F93A1
S1130570822F022E000C990B9F932F9385E690E017
S11305809F938F938EE890E09F938F930E94B30480
S113059061E083E00E94B4008EE890E00E94F100E4
S11305A08DB79EB708960FB6F8949EBF0FBE8DBF49
S11305B0DF91CF91089581B3806481BB82B38F7B37
S11305C082BB87E893E10197F1F700C0000082B392
S11305D0806482BB089581B38F7B81BB8699FECFF3
S11305E0869BFECF8699FECF089520E030E019C0A7
S11305F0869BFECF8AE08A95F1F7869B09C080919D
S1130600800090E0880F991F81608093800005C06E
S113061080918000880F809380008699FECF2F5FA1
S11306203F4F2830310524F380918000089582E003
S11306300E94FE0080E00E9475018FE493EC019714
S1130640F1F700C0000081E00E9475018FE493EC93
S11306500197F1F700C000000E94C90060E080E04B
S11306600E94B4008BE690E00E94F10061E089E012
S11306700E94B4008FE690E00E94F10061E080E007
S11306800E94B4008EE690E00E94F10060E089E0F0
S11306900E94B40082E790E00E94F1008FEF81BBDA
S11306A084BB1ABA0E9479010E94910180917E0054
S11306B090917F00019690937F0080937E000E942A
S11306C0DB020E94EB020E94F5028093A8000E94C4
S11306D0F5028093A5000E94F5028093A7000E9472
S11306E0F5028093A9000E94F5028093A600E09190
S11306F0A800F0E09091A5009F01290F311D909171
S1130700A700290F311D9091A900290F311D482FF1
S113071050E02417350709F046C04AE069E870E064
S1130720CF010E948E0460E082E00E94B40089E858
S113073090E00E94F10087E790E00E94F100809130
S1130740A5004AE06CE970E090E00E948E048CE918
S113075090E00E94F10089E790E00E94F10080910E
S1130760A7004AE064E870E090E00E948E0461E033
S11307708BE00E94B40084E890E00E94F10087E7D7
S113078090E00E94F1008091A9004AE06AEA70E0DA
S113079090E00E948E048AEA90E00E94F1008BE7C8
S11307A090E00E94F1009FE52AEE80E09150204005
S11307B08040E1F700C000000E9489029FE52AEE14
S11307C080E0915020408040E1F700C0000000E04C
S11307D010E0E12CF12CC0E0D0E01AC080E00E94CF
S11307E07F018732924040F0012B49F48FEFE81AE1
S11307F0F80A01E010E005C000E010E002C000E0EB
S113080010E08FE493EC0197F1F700C0000021960B
S1130810C632D1051CF3C701880F991F8E0D9F1D89
S1130820880F991F4AE061EA70E00E948E0460E03C
S11308308DE00E94B40081EA90E00E94F100809172
S11308407E0080FD33CF0E949F019FE72AE186E06E
S1130850915020408040E1F700C0000027CF11B83C
S11308608CE080B9089594EA96BF06B607FEFDCFE2
S113087091B1987F983011F0903171F483B984E884
S113088086BF06B607FEFDCF81B1887F883131F07F
S1130890803431F480E0089581E0089580E0089583
S11308A081E0089584E986BF06B604FCFDCF08956F
S11308B083B984E886BF06B607FEFDCF81B1887F81
S11308C0883211F081E0089580E0089597FB072EA7
S11308D016F4009407D077FD09D00E947A0407FC2F
S11308E005D03EF4909581959F4F0895709561953C
S11308F07F4F0895AA1BBB1B51E107C0AA1FBB1F52
S1130900A617B70710F0A61BB70B881F991F5A9597
S1130910A9F780959095BC01CD010895BB274A3075
S113092031F4992322F4BDE2909581959F4F0C9464
S11309309A04BB27FB015527AA27880F991FAA1FD2
S1130940A41710F0A41B83955051B9F7A05DAA33E6
S113095008F0A95DA193009779F7B111B1931192B1
S1130960CB010C94CC06AEE0B0E0E9EBF4E00C94DF
S113097084070D891E8986E08C831A8309838FEF8F
S11309809FE79E838D83AE01475E5F4F6F89788DAD
S1130990CE0101960E94D504EF81F885E00FF11F86
S11309A010822E96E4E00C94A007ABE0B0E0EBEDEF
S11309B0F4E00C9476076C017B018A01FC01178238
S11309C01682838181FFCCC1CE0101963C01F601E0
S11309D09381F70193FD859193FF81917F01882392
S11309E009F4BAC1853239F493FD859193FF81915D
S11309F07F01853229F4B60190E00E94DC06E7CF3E
S1130A00912C212C312CFFE1F315D8F08B3279F0A5
S1130A1038F4803279F08332A1F4232D20611DC093
S1130A208D3261F0803369F4232D216016C0832D4B
S1130A308260382EE32DE4603E2E2AC0F32DF86048
S1130A401DC037FC2DC020ED280F2A3040F08E3217
S1130A50B9F436FC81C1232D2064322E19C036FE30
S1130A6006C08AE0989E200D1124922E11C0EAE05F
S1130A702E9E200D1124222EF32DF0623F2E08C04D
S1130A808C3621F4832D8068382E02C0883641F4D8
S1130A90F70193FD859193FF81917F018111B3CF7C
S1130AA0982F9F7D9554933028F40C5F1F4F9FE33C
S1130AB099830DC0833631F0833771F0833509F0A3
S1130AC059C021C0F801808189830E5F1F4F88249B
S1130AD08394912C530113C02801F2E04F0E511C52
S1130AE0F801A080B18036FE03C0692D70E002C019
S1130AF06FEF7FEFC5010E94C1064C018201F32D07
S1130B00FF773F2E16C0280122E0420E511CF80147
S1130B10A080B18036FE03C0692D70E002C06FEF83
S1130B207FEFC5010E94B6064C01F32DF0683F2EFD
S1130B30820133FC1BC0822D90E088169906B0F424
S1130B40B60180E290E00E94DC062A94F4CFF5011D
S1130B5037FC859137FE81915F01B60190E00E94D8
S1130B60DC0621102A9421E0821A91088114910450
S1130B7071F7E8C0843611F0893641F5F80137FE83
S1130B8007C060817181828193810C5F1F4F08C00F
S1130B9060817181072E000C880B990B0E5F1F4F2B
S1130BA0F32DFF763F2E97FF09C0909580957095A1
S1130BB061957F4F8F4F9F4FF0683F2E2AE030E0C2
S1130BC0A3010E941807882E861845C0853731F482
S1130BD0232D2F7EB22E2AE030E025C0932D997F5D
S1130BE0B92E8F36C1F018F4883579F0B5C0803746
S1130BF019F0883721F0B0C0E92FE061BE2EB4FEB1
S1130C000DC0FB2DF460BF2E09C034FE0AC0292F8D
S1130C102660B22E06C028E030E005C020E130E0B6
S1130C2002C020E132E0F801B7FE07C060817181A3
S1130C30828193810C5F1F4F06C06081718180E0C7
S1130C4090E00E5F1F4FA3010E941807882E86189C
S1130C50FB2DFF773F2E36FE0DC0232D2E7FA22EB7
S1130C60891458F434FE0BC032FC09C0832D8E7EE7
S1130C70A82E05C0B82CA32C03C0B82C01C0B92CD5
S1130C80A4FE0FC0FE01E80DF11D8081803321F424
S1130C909A2D997EA92E09C0A2FE06C0B394B394DE
S1130CA004C08A2D867809F0B394A3FC11C0A0FE79
S1130CB006C0B21488F4280C922C9B180EC0B214EF
S1130CC060F4B60180E290E00E94DC06B394F7CFB2
S1130CD0B21418F42B1802C0982C212CA4FE10C0B6
S1130CE0B60180E390E00E94DC06A2FE17C0A1FCDE
S1130CF003C088E790E002C088E590E0B6010CC02C
S1130D008A2D867859F0A1FE02C08BE201C080E2F0
S1130D10A7FC8DE2B60190E00E94DC06891438F449
S1130D20B60180E390E00E94DC069A94F7CF8A949F
S1130D30F301E80DF11D8081B60190E00E94DC060C
S1130D408110F5CF222009F442CEB60180E290E072
S1130D500E94DC062A94F6CFF6018681978102C0B0
S1130D608FEF9FEF2B96E2E10C949207FC01059024
S1130D70615070400110D8F7809590958E0F9F1F99
S1130D800895FC016150704001900110D8F78095DE
S1130D9090958E0F9F1F0895DC01FC01672F7191C0
S1130DA07723E1F7329704C07C916D93708362914D
S1130DB0AE17BF07C8F308950F931F93CF93DF9324
S1130DC0FB01238121FD03C08FEF9FEF2CC022FF85
S1130DD016C046815781248135814217530744F454
S1130DE0A081B1819D012F5F3F4F318320838C937C
S1130DF0268137812F5F3F4F3783268314C08B01B1
S1130E00EC01FB010084F185E02D0995892BE1F6C5
S1130E10D80116968D919C911797019617969C93DD
S1130E208E931697CE01DF91CF911F910F91089564
S1130E30FA01AA27283051F1203181F1E8946F9307
S1130E406E7F6E5F7F4F8F4F9F4FAF4FB1E03ED0AD
S1130E50B4E03CD0670F781F891F9A1FA11D680F4B
S1130E60791F8A1F911DA11D6A0F711D811D911D7E
S1130E70A11D20D009F468943F912AE0269F1124F3
S1130E803019305D3193DEF6CF010895462F477057
S1130E90405D4193B3E00FD0C9F7F6CF462F4F70B2
S1130EA0405D4A3318F0495D31FD4052419302D010
S1130EB0A9F7EACFB4E0A6959795879577956795B6
S1130EC0BA95C9F700976105710508959B01AC01B6
S1130ED00A2E06945795479537952795BA95C9F7DD
S1130EE0620F731F841F951FA01D08952F923F92B8
S1130EF04F925F926F927F928F929F92AF92BF9226
S1130F00CF92DF92EF92FF920F931F93CF93DF93D1
S1130F10CDB7DEB7CA1BDB0B0FB6F894DEBF0FBE2E
S1130F20CDBF09942A88398848885F846E847D847B
S1130F308C849B84AA84B984C884DF80EE80FD807D
S1130F400C811B81AA81B981CE0FD11D0FB6F894F3
S1110F50DEBF0FBECDBFED010895F894FFCFB4
S1130F5E0880C0000025642E256400483D004254DC
S1110F6E3D0042504D3D002E00250043000082
S9030000FC
