S0120000496E74656772617465642E737265630B
S11300000C942A000C9447000C9447000C9447006D
S11300100C9447000C9447000C9447000C94470040
S11300200C9447000C9447000C9447000C94470030
S11300300C9447000C9447000C9447000C94470020
S11300400C9447000C9447000C9447000C94470010
S11300500C94470011241FBECFE5D8E0DEBFCDBF0E
S113006011E0A0E6B0E0E6E8F0E102C005900D92F0
S1130070AC37B107D9F721E0ACE7B1E001C01D927C
S1130080A13BB207E1F70E9469030C9441080C9468
S113009000000F931F93CF93DF938B01D42F880F0E
S11300A00E94BC04882351F0C1E00CC0F801EC0F9D
S11300B0F11D80810E94E104CF5F01C0C0E0CD1733
S11300C0A8F3C0E00E94DB048C2FDF91CF911F9135
S11300D00F9108950F931F93CF93DF9300D000D017
S11300E01F92CDB7DEB7082F683071F4882311F062
S11300F088E001C080E08093600041E060E670E049
S113010087E20E94490026C080916000162F182BB8
S11301101983802F807F812B84608A838B7F8B83DC
S113012020E1029FC0011124812B84608C838B7F8A
S11301308D8345E0BE016F5F7F4F87E20E944900D7
S113014010FD08C0033030F4E3EFF1E03197F1F72C
S113015000C000000F900F900F900F900F90DF9150
S1130160CF911F910F910895CF93DF93D82FC62F6E
S1130170E62FF0E0EF59FF4F80818D2B60E080681F
S11301800E946A00D0938401C0938501DF91CF91CE
S1130190089560E081E00E946A0010928501109247
S11301A084010895CF93C82F909184018091830195
S11301B0981710F4CA3041F4609185016F5F609321
S11301C0850180E00E94B400CA3049F08091840126
S11301D08F5F8093840161E08C2F0E946A00CF912D
S11301E00895CF93DF93EC0103C021960E94D200BF
S11301F088818111FACFDF91CF9108950F931F93D6
S1130200CF93DF9300D000D000D0CDB7DEB7082F56
S113021080E3898394E39A838B8380E28C8394E2E2
S11302209D838E8380E180938301E1E6F0E0808109
S1130230805F82838181805F838387B3806287BB91
S113024088B3806288BB0E94B8048BE49DE1019767
S1130250F1F700C0000043E0BE016F5F7F4F87E20B
S11302600E944900182F81EE94E00197F1F700C035
S1130270000043E0BE016F5F7F4F87E20E944900A8
S1130280182B43E0BE016F5F7F4F87E20E94490055
S1130290182B43E0BE016C5F7F4F87E20E94490048
S11302A0182B60E088E20E946A00812B19F088B361
S11302B08F7D88BB60E08CE00E946A0060E086E08D
S11302C00E946A0060E081E00E946A0060E0802F82
S11302D00E946A0026960FB6F894DEBF0FBECDBF0B
S11302E0DF91CF911F910F91089568E00E946A00F9
S11302F008951ABA80E687B985E886B9089586B163
S1130300806486B93699FECF24B122952695269528
S1130310237085B190E0880F991F880F991F822B55
S1130320089510BC8CE089B982E08BB988E18AB960
S113033086E880BD08955D9BFECF8CB90895CF9269
S1130340DF92EF92FF920F931F93CF93DF93CDB77A
S1130350DEB7C85CD1090FB6F894DEBF0FBECDBFBF
S11303608EE0E7E6F0E08E010F5F1F4FD8010190A9
S11303700D928A95E1F7FE013F968AEBDF011D920B
S11303808A95E9F766E871E0C8010E941705F8014B
S113039001900020E9F731970F2EFEE2CF2ED12CE9
S11303A0F02DD182C0826CEA71E0C8010E94170569
S11303B0F80101900020E9F731970F2EF3E4EF2EB6
S11303C0FAE0FF2EF02DF182E0821282D8010D9026
S11303D00020E9F711978BE0EFE2F1E001900D9234
S11303E08A95E1F76BE871E0C8010E941705F801EE
S11303F001900020E9F73197D182C0826EE971E063
S1130400C8010E941705F80101900020E9F731970F
S113041085E29AE0918380831282D8010D900020B6
S1130420E9F7119783E1EAE3F1E001900D928A95EF
S1130430E1F760E971E0C8010E941705F801019035
S11304400020E9F73197F182E0821282D8010D9001
S11304500020E9F711978DE0EDE4F1E001900D92B1
S11304608A95E1F763EA71E0C8010E941705D80193
S11304700D900020E9F7119786E0EAE5F1E001909C
S11304800D928A95E1F700E010E004C00E949B0100
S11304900F5F1F4FE1E0F0E0EC0FFD1FE00FF11FD5
S11304A080818111F3CFBFE32DE083E0B150204080
S11304B08040E1F700C00000C853DF4F0FB6F89446
S11304C0DEBF0FBECDBFDF91CF911F910F91FF9083
S11304D0EF90DF90CF90089585B38F7785BB84B379
S11304E0806884BB80EA8A95F1F784B38F7784BBF4
S11304F094E19A95F1F783B380789CE89A95F1F7A3
S1130500089595B39F7795BB94B3906894BB00000E
S1130510882319F084B38F7784BB84E18A95F1F73B
S113052084B38F7784BB089585B38F7785BB84B3F9
S1130530806884BB000084B38F7784BB84E08A9591
S1130540F1F700C09F9902C080E001C081E09FE004
S11305509A95F1F70895CF93DF9380E098E00AC06D
S1130560C82FC6950E94940220E8829FC0011124DE
S11305708C2B9D2FDFEFD90F9111F2CFDF91CF910B
S11305800895CF93DF93C82F88E006C08C2F817025
S11305900E948102C6958D2FDFEFD80F8111F6CF0F
S11305A0DF91CF910895CF93DF930E946C028CEC7E
S11305B00E94C10284E40E94C1020E949402882322
S11305C0E1F30E946C028CEC0E94C1028EEB0E944B
S11305D0C1020E94AB02D82F0E94AB02C82F0E9416
S11305E06C022D2F22952F70C77030E1C39FC0017C
S11305F01124282B8D2F90E06AE070E00E94EF0414
S11306007F936F93822F022E000C990B9F932F934D
S113061080E691E09F938F9380E991E09F938F937D
S11306200E94470561E083E00E94B40080E991E004
S11306300E94F10061E088E00E94B4008BE491E044
S11306400E94F1008DB79EB708960FB6F8949EBF2E
S11306500FBE8DBFDF91CF91089581B3806481BBBC
S113066082B38F7B82BB87E893E10197F1F700C0E7
S1130670000082B3806482BB089581B38F7B81BB09
S11306808699FECF869BFECF8699FECF089520E003
S113069030E019C0869BFECF8AE08A95F1F7869BED
S11306A009C08091820190E0880F991F8160809336
S11306B0820105C080918201880F8093820186990E
S11306C0FECF2F5F3F4F2830310524F38091820104
S11306D0089582E00E94FE0080E00E9475018FE48C
S11306E093EC0197F1F700C0000081E00E947501CE
S11306F08FE493EC0197F1F700C000000E94C90059
S113070060E080E00E94B40086E691E00E94F1007F
S113071061E089E00E94B4008AE691E00E94F10061
S113072061E080E00E94B40089E691E00E94F1005B
S113073060E089E00E94B4008DE691E00E94F1003F
S11307408FEF81BB84BB1ABA0E9479010E94910188
S11307500E942D030E943D030E9447038093AA0137
S11307600E9447038093A7010E9447038093A90135
S11307700E9447038093AB010E9447038093A80122
S1130780E091AA01F0E09091A7019F01290F311D8A
S11307909091A901290F311D9091AB01290F311DB1
S11307A0482F50E02417350709F046C04AE06BE8AB
S11307B071E0CF010E94220560E082E00E94B40053
S11307C08BE891E00E94F10082E791E00E94F10041
S11307D08091A7014AE06EE971E090E00E94220551
S11307E08EE991E00E94F10084E791E00E94F1001B
S11307F08091A9014AE066E871E090E00E94220538
S113080061E08BE00E94B40086E891E00E94F10070
S113081082E791E00E94F1008091AB014AE06CEA2A
S113082071E090E00E9422058CEA91E00E94F100C0
S113083086E791E00E94F10083ED90E30197F1F7E0
S113084000C000000E94D30283ED90E30197F1F70A
S113085000C00000809180019091810101969093E5
S113086081018093800167E170E00E94EF04892B8D
S113087079F5109281011092800180917E0190910E
S11308807F01419734F080E190E090937F01809361
S11308907E0180917E0190917F019C01220F331F84
S11308A0820F931F880F991F4AE063EA71E00E9448
S11308B0220560E08DE00E94B40083EA91E00E948A
S11308C0F10010927F0110927E0110927D0123C0ED
S11308D080E00E947F012091650030916600281716
S11308E0390788F480917D0181110DC080917E01CA
S11308F090917F01019690937F0180937E0181E026
S113090080937D0102C010927D0183ED90E30197F5
S1130910F1F700C0000080918001909181016AE0AC
S113092070E00E94EF04892B19F481E080937C012C
S113093080917C01882369F060E087E00E94B40024
S113094088E791E00E94F10010927C010E949F01CF
S113095008C060E087E00E94B4008AE791E00E944A
S1130960F10083ED90E30197F1F700C00000F0CEB1
S113097011B88CE080B9089594EA96BF06B607FED4
S1130980FDCF91B1987F983011F0903171F483B913
S113099084E886BF06B607FEFDCF81B1887F883123
S11309A031F0803431F480E0089581E0089580E0EE
S11309B0089581E0089584E986BF06B604FCFDCF5E
S11309C0089583B984E886BF06B607FEFDCF81B1DA
S11309D0887F883211F081E0089580E0089597FBC4
S11309E0072E16F4009407D077FD09D00E94030562
S11309F007FC05D03EF4909581959F4F089570951E
S1130A0061957F4F0895AA1BBB1B51E107C0AA1F24
S1130A10BB1FA617B70710F0A61BB70B881F991F9B
S1130A205A95A9F780959095BC01CD010895FB01D5
S1130A30DC010D900020E9F7119701900D92002040
S1130A40E1F70895BB274A3031F4992322F4BDE23B
S1130A50909581959F4F0C942E05BB27FB0155273C
S1130A60AA27880F991FAA1FA41710F0A41B839507
S1130A705051B9F7A05DAA3308F0A95DA19300977E
S1130A8079F7B111B1931192CB010C946007AEE0E8
S1130A90B0E0EDE4F5E00C9418080D891E8986E0B9
S1130AA08C831A8309838FEF9FE79E838D83AE0126
S1130AB0475E5F4F6F89788DCE0101960E9469056C
S1130AC0EF81F885E00FF11F10822E96E4E00C947C
S1130AD03408ABE0B0E0EFE6F5E00C940A086C01F2
S1130AE07B018A01FC0117821682838181FFCCC1BC
S1130AF0CE0101963C01F6019381F70193FD8591A6
S1130B0093FF81917F01882309F4BAC1853239F4B6
S1130B1093FD859193FF81917F01853229F4B6017C
S1130B2090E00E947007E7CF912C212C312CFFE13B
S1130B30F315D8F08B3279F038F4803279F08332BF
S1130B40A1F4232D20611DC08D3261F0803369F43E
S1130B50232D216016C0832D8260382EE32DE4609E
S1130B603E2E2AC0F32DF8601DC037FC2DC020EDA9
S1130B70280F2A3040F08E32B9F436FC81C1232D7F
S1130B802064322E19C036FE06C08AE0989E200DDD
S1130B901124922E11C0EAE02E9E200D1124222E43
S1130BA0F32DF0623F2E08C08C3621F4832D80682B
S1130BB0382E02C0883641F4F70193FD859193FFE6
S1130BC081917F018111B3CF982F9F7D95549330EC
S1130BD028F40C5F1F4F9FE399830DC0833631F0D7
S1130BE0833771F0833509F059C021C0F801808141
S1130BF089830E5F1F4F88248394912C530113C063
S1130C002801F2E04F0E511CF801A080B18036FE9D
S1130C1003C0692D70E002C06FEF7FEFC5010E9431
S1130C2055074C018201F32DFF773F2E16C0280192
S1130C3022E0420E511CF801A080B18036FE03C0B0
S1130C40692D70E002C06FEF7FEFC5010E944A0773
S1130C504C01F32DF0683F2E820133FC1BC0822D22
S1130C6090E088169906B0F4B60180E290E00E9404
S1130C7070072A94F4CFF50137FC859137FE8191F2
S1130C805F01B60190E00E94700721102A9421E0D0
S1130C90821A91088114910471F7E8C0843611F026
S1130CA0893641F5F80137FE07C060817181828180
S1130CB093810C5F1F4F08C060817181072E000C67
S1130CC0880B990B0E5F1F4FF32DFF763F2E97FF76
S1130CD009C090958095709561957F4F8F4F9F4F78
S1130CE0F0683F2E2AE030E0A3010E94AC07882E72
S1130CF0861845C0853731F4232D2F7EB22E2AE085
S1130D0030E025C0932D997FB92E8F36C1F018F4A9
S1130D10883579F0B5C0803719F0883721F0B0C034
S1130D20E92FE061BE2EB4FE0DC0FB2DF460BF2E92
S1130D3009C034FE0AC0292F2660B22E06C028E05E
S1130D4030E005C020E130E002C020E132E0F801EB
S1130D50B7FE07C060817181828193810C5F1F4F50
S1130D6006C06081718180E090E00E5F1F4FA30197
S1130D700E94AC07882E8618FB2DFF773F2E36FE87
S1130D800DC0232D2E7FA22E891458F434FE0BC0DF
S1130D9032FC09C0832D8E7EA82E05C0B82CA32C4E
S1130DA003C0B82C01C0B92CA4FE0FC0FE01E80D8D
S1130DB0F11D8081803321F49A2D997EA92E09C0DA
S1130DC0A2FE06C0B394B39404C08A2D867809F0B9
S1130DD0B394A3FC11C0A0FE06C0B21488F4280C7E
S1130DE0922C9B180EC0B21460F4B60180E290E01D
S1130DF00E947007B394F7CFB21418F42B1802C0F2
S1130E00982C212CA4FE10C0B60180E390E00E942F
S1130E107007A2FE17C0A1FC03C088E790E002C0DF
S1130E2088E590E0B6010CC08A2D867859F0A1FEC1
S1130E3002C08BE201C080E2A7FC8DE2B60190E023
S1130E400E947007891438F4B60180E390E00E9490
S1130E5070079A94F7CF8A94F301E80DF11D80810D
S1130E60B60190E00E9470078110F5CF222009F4AA
S1130E7042CEB60180E290E00E9470072A94F6CF39
S1130E80F6018681978102C08FEF9FEF2B96E2E1F6
S1130E900C942608FC010590615070400110D8F7AD
S1130EA0809590958E0F9F1F0895FC0161507040AE
S1130EB001900110D8F7809590958E0F9F1F08958B
S1130EC0DC01FC01672F71917723E1F7329704C0AD
S1130ED07C916D9370836291AE17BF07C8F3089538
S1130EE00F931F93CF93DF93FB01238121FD03C055
S1130EF08FEF9FEF2CC022FF16C0468157812481BB
S1130F0035814217530744F4A081B1819D012F5FBD
S1130F103F4F318320838C93268137812F5F3F4F4E
S1130F203783268314C08B01EC01FB010084F18517
S1130F30E02D0995892BE1F6D80116968D919C91A7
S1130F401797019617969C938E931697CE01DF916F
S1130F50CF911F910F910895FA01AA27283051F1DA
S1130F60203181F1E8946F936E7F6E5F7F4F8F4FD6
S1130F709F4FAF4FB1E03ED0B4E03CD0670F781F35
S1130F80891F9A1FA11D680F791F8A1F911DA11D1A
S1130F906A0F711D811D911DA11D20D009F4689453
S1130FA03F912AE0269F11243019305D3193DEF6FB
S1130FB0CF010895462F4770405D4193B3E00FD0B1
S1130FC0C9F7F6CF462F4F70405D4A3318F0495D9C
S1130FD031FD4052419302D0A9F7EACFB4E0A6957F
S1130FE09795879577956795BA95C9F700976105A1
S1130FF0710508959B01AC010A2E069457954795F7
S113100037952795BA95C9F7620F731F841F951FEB
S1131010A01D08952F923F924F925F926F927F92FC
S11310208F929F92AF92BF92CF92DF92EF92FF92F4
S11310300F931F93CF93DF93CDB7DEB7CA1BDB0BA0
S11310400FB6F894DEBF0FBECDBF09942A88398845
S113105048885F846E847D848C849B84AA84B9844C
S1131060C884DF80EE80FD800C811B81AA81B98158
S1131070CE0FD11D0FB6F894DEBF0FBECDBFED016C
S10910800895F894FFCF6F
S11310860880C00000260254656D7065726174752F
S113109672653A2000000000000000000000000015
S11310A60000000000000000000000000000000036
S11310B60000000000000000000000000000000026
S11310C60000000000000000000000000000000016
S11310D60000000000000000000000000000000006
S11310E600000000000000000000000000000000F6
S11310F600000000000000000000000000000000E6
S113110600000000000000000000000000000000D5
S113111600000000000000000000000000000000C5
S113112600000000000000000000000000000000B5
S113113600000000000000000000000000000000A5
S1131146000000000000000000000000000000484D
S1131156756D69646974793A2000426F6479205424
S1131166656D70657261747572653A200050756CB0
S1131176736520526174653A20002062706D0A001E
S113118625642E256400483D0042543D0042504DDE
S10F11963D002E002500430059004E00CF
S9030000FC
