:100000000C942A000C9447000C9447000C94470071
:100010000C9447000C9447000C9447000C94470044
:100020000C9447000C9447000C9447000C94470034
:100030000C9447000C9447000C9447000C94470024
:100040000C9447000C9447000C9447000C94470014
:100050000C94470011241FBECFE5D8E0DEBFCDBF12
:1000600010E0A0E6B0E0E6EAF5E002C005900D92EF
:10007000A038B107D9F720E0A0E8B0E001C01D9298
:10008000A938B207E1F70E94B5010C94D1020C9493
:1000900000000F931F93CF93DF938B01D42F880F12
:1000A0000E946902882351F0C1E00CC0F801EC0FF6
:1000B000F11D80810E948E02CF5F01C0C0E0CD178C
:1000C000A8F3C0E00E9488028C2FDF91CF911F918E
:1000D0000F9108950F931F93CF93DF9300D000D01B
:1000E0001F92CDB7DEB7082F683071F4882311F066
:1000F00088E001C080E08093600041E060E670E04D
:1001000087E20E94490026C080916000162F182BBC
:100110001983802F807F812B84608A838B7F8B83E0
:1001200020E1029FC0011124812B84608C838B7F8E
:100130008D8345E0BE016F5F7F4F87E20E944900DB
:1001400010FD08C0033030F4E3EFF1E03197F1F730
:1001500000C000000F900F900F900F900F90DF9154
:10016000CF911F910F910895CF93DF93D82FC62F72
:10017000E62FF0E0EF59FF4F80818D2B60E0806823
:100180000E946A00D0938200C0938300DF91CF91D8
:10019000089560E081E00E946A001092830010924E
:1001A00082000895CF93C82F9091820080918100A2
:1001B000981710F4CA3041F4609183006F5F609328
:1001C000830080E00E94B400CA3049F08091820030
:1001D0008F5F8093820061E08C2F0E946A00CF9134
:1001E0000895CF93DF93EC0103C021960E94D200C3
:1001F00088818111FACFDF91CF9108950F931F93DA
:10020000CF93DF9300D000D000D0CDB7DEB7082F5A
:1002100080E3898394E39A838B8380E28C8394E2E6
:100220009D838E8380E180938100E1E6F0E0808110
:10023000805F82838181805F838387B3806287BB95
:1002400088B3806288BB0E9465028BE49DE10197C0
:10025000F1F700C0000043E0BE016F5F7F4F87E20F
:100260000E944900182F81EE94E00197F1F700C039
:10027000000043E0BE016F5F7F4F87E20E944900AC
:10028000182B43E0BE016F5F7F4F87E20E94490059
:10029000182B43E0BE016C5F7F4F87E20E9449004C
:1002A000182B60E088E20E946A00812B19F088B365
:1002B0008F7D88BB60E08CE00E946A0060E086E091
:1002C0000E946A0060E081E00E946A0060E0802F86
:1002D0000E946A0026960FB6F894DEBF0FBECDBF0F
:1002E000DF91CF911F910F91089568E00E946A00FD
:1002F000089581B3806481BB82B38F7B82BB87E822
:1003000093E10197F1F700C0000082B3806482BBE3
:10031000089581B38F7B81BB8699FECF869BFECFEC
:100320008699FECF089520E030E019C0869BFECF6D
:100330008AE08A95F1F7869B09C08091800090E061
:10034000880F991F81608093800005C08091800094
:10035000880F809380008699FECF2F5F3F4F283013
:10036000310524F3809180000895CF93DF9300D06E
:1003700000D01F92CDB7DEB782E00E94FE0080E081
:100380000E9475018FE493EC0197F1F700C0000023
:1003900081E00E9475018FE493EC0197F1F700C0B2
:1003A00000000E94C90060E080E00E94B40085E681
:1003B00090E00E94F10061E080E00E94B40080E7DC
:1003C00090E00E94F1000E9479010E9489010E9440
:1003D0009301809387000E949301809384000E9480
:1003E0009301809386000E949301809388000E946D
:1003F000930180938500E0918700F0E09091840064
:100400009F01290F311D90918600290F311D909178
:100410008800290F311D482F50E02417350709F0B7
:100420004AC04AE0BE016F5F7F4FCF010E949C022D
:1004300060E08BE00E94B400CE0101960E94F100C2
:1004400088E790E00E94F100809184004AE0BE01BC
:100450006F5F7F4F90E00E949C02CE0101960E9448
:10046000F1008AE790E00E94F100809186004AE066
:10047000BE016F5F7F4F90E00E949C0261E086E0CA
:100480000E94B400CE0101960E94F10088E790E03E
:100490000E94F100809188004AE0BE016F5F7F4FAB
:1004A00090E00E949C02CE0101960E94F1008CE730
:1004B00090E00E94F1009FE926E881E09150204001
:1004C0008040E1F700C000007ECF11B88CE080B919
:1004D000089594EA96BF06B607FEFDCF91B1987FC6
:1004E000983011F0903171F483B984E886BF06B674
:1004F00007FEFDCF81B1887F883131F0803431F43F
:1005000080E0089581E0089580E0089581E00895F5
:1005100084E986BF06B604FCFDCF089583B984E85C
:1005200086BF06B607FEFDCF81B1887F883211F005
:1005300081E0089580E00895BB274A3031F4992383
:1005400022F4BDE2909581959F4F0C94A802BB27A1
:10055000FB015527AA27880F991FAA1FA41710F07F
:10056000A41B83955051B9F7A05DAA3308F0A95D8B
:10057000A193009779F7B111B1931192CB010C942B
:10058000C102DC01FC01672F71917723E1F73297FB
:1005900004C07C916D9370836291AE17BF07C8F35E
:0605A0000895F894FFCF5E
:1005A6000880C0000048756D6964697479203D0053
:1005B60054656D70203D20002E002500432000006C
:00000001FF
