:100000000C942A000C9447000C9447000C94470071
:100010000C9447000C9447000C9447000C94470044
:100020000C9447000C9447000C9447000C94CA0AA7
:100030000C9447000C9447000C9447000C94470024
:100040000C9447000C9447000C9447000C94470014
:100050000C94470011241FBECFE5D8E0DEBFCDBF12
:1000600010E0A0E6B0E0ECE1FBE102C005900D92EB
:10007000A237B107D9F720E0A2E7B0E001C01D9296
:10008000AD39B207E1F70E9449000C948C0D0C9435
:100090000000CF93DF93CDB7DEB7A8970FB6F894E3
:1000A000DEBF0FBECDBF82E00E94250280E00E942D
:1000B00096028FE493EC0197F1F700C0000081E015
:1000C0000E949602EFE4F3EC3197F1F700C00000D4
:1000D0000E94E4018FEF8ABB81BB12BA1BBA82ED8A
:1000E00090E090938B0080938A001A8219821C8280
:1000F0001B821E821D8218861F821A8619861C8604
:100100001B8678940E945C0483ED90E30197F1F7DD
:1001100000C00000C12CD12C3E0191E2690E711C7F
:100120004E01E9E18E0E911C5E01F1E1AF0EB11CB2
:1001300060E080E00E94CE0189E690E00E94160215
:10014000C114D10439F082ED90E090938B0080933C
:100150008A0006C080ED90E090938B0080938A0027
:100160009E01255F3F4F79018E01075F1F4F24508D
:100170003109AE014B5F5F4FBE016D5F7F4FCE0116
:1001800001960E948D0489819A81919581959109AA
:100190009A8389838B819C819195819591099C8318
:1001A0008B838D819E819195819591099E838D830D
:1001B00081E090E0FC01EC19FD096F0183ED90E313
:1001C0000197F1F700C0000081E698E79E8F8D8FC0
:1001D0000DE310E018A30F8F6894FF24F2F8F301E9
:1001E0002F2D11922A95E9F74AE0BE016B5D7F4FF2
:1001F00089819A810E94570DBE016B5D7F4FCE01B0
:100200004D960E944C0D61E080E00E94CE01CE012F
:100210004D960E94160281E699E79E8B8D8B188F72
:100220000F8BF4012F2D11922A95E9F74AE0BE01B8
:100230006B5D7F4F8B819C810E94570DBE016B5D72
:100240007F4FCE0145960E944C0D61E088E00E94F0
:10025000CE01CE0145960E94160287E69AE79E8758
:100260008D87188B0F87F5011192FA94E9F74AE010
:10027000BE016B5D7F4F8B859C850E94570DBE0133
:100280006B5D7F4FCE010D960E944C0D60E088E0C3
:100290000E94CE01CE010D960E941602FFE32DE0D2
:1002A00033E0F15020403040E1F700C0000040CF83
:1002B000EF92FF920F931F93CF93DF937B01142F45
:1002C000880F0E949E02811112C0112391F0E70154
:1002D0001150012F10E00F5F1F4F0E0D1F1D899150
:1002E0000E94E802C017D107D1F7C0E003C0C1E007
:1002F00001C0C0E00E94DB028C2FDF91CF911F91E3
:100300000F91FF90EF9008950F931F93CF93DF937A
:1003100000D000D01F92CDB7DEB7082F683071F43F
:10032000811102C080E001C088E08093600041E05C
:1003300060E670E087E20E94580126C0809160006C
:10034000162F182B1983802F807F8460812B8A833E
:100350008B7F8B8320E1029FC0011124812B84605D
:100360008C838B7F8D8345E0BE016F5F7F4F87E27B
:100370000E94580110FD08C0033030F4E3EFF1E0B3
:100380003197F1F700C000000F900F900F900F9081
:100390000F90DF91CF911F910F910895CF93DF932D
:1003A000D82FC62FE62FF0E0EF59FF4F982F906817
:1003B000808160E0892B0E948401D0938D00C093DE
:1003C0008E00DF91CF91089560E081E00E9484016A
:1003D00010928E0010928D000895CF93C82F9091A7
:1003E0008D0080918C00981718F4CA3059F414C00D
:1003F00060918E006F5F60938E0080E00E94CE015E
:10040000CA3091F080918D008F5F80938D0061E004
:100410008C2F0E94840108C060918E006F5F6093F2
:100420008E0080E00E94CE01CF910895CF93DF939C
:10043000EC018881882331F021960E94ED01899199
:100440008111FBCFDF91CF9108950F931F93CF932D
:10045000DF9300D000D000D0CDB7DEB7082F80E307
:10046000898394E39A838B8380E28C8394E29D83D7
:100470008E8380E180938C00E1E6F0E08081805FF4
:1004800082838181805F8383BD9AC59A0E949A028C
:100490008BE49DE10197F1F700C0000043E0BE014D
:1004A0006F5F7F4F87E20E945801182F81EE94E022
:1004B0000197F1F700C0000043E0BE016F5F7F4F7E
:1004C00087E20E945801182B43E0BE016F5F7F4F07
:1004D00087E20E945801182B43E0BE016C5F7F4FFA
:1004E00087E20E945801182B60E088E20E94840194
:1004F000812B09F0C59860E08CE00E94840160E0E7
:1005000086E00E94840160E081E00E94840160E056
:10051000802F0E94840126960FB6F894DEBF0FBE8E
:10052000CDBFDF91CF911F910F91089568E00E9498
:100530008401089511B88CE080B9089594EA96BFBB
:100540004FEF50E060E070E006B607FC06C0415097
:10055000510961097109C0F704C0452B462B472B8F
:1005600011F191B1987F983011F09031F1F483B985
:1005700084E886BF8FEF90E0A0E0B0E006B607FC0D
:1005800005C00197A109B109C8F704C0892B8A2BBE
:100590008B2B69F091B1987F983159F081E09034BC
:1005A00049F480E0089581E0089581E0089581E0B4
:1005B000089580E0089584E986BF80E090E006B663
:1005C00004FE05C00196811521E09207C1F7089548
:1005D00083B984E886BF8FEF90E0A0E0B0E006B674
:1005E00007FC05C00197A109B109C8F704C0892B10
:1005F0008A2B8B2B39F091B1987F81E0983219F4D6
:1006000080E0089581E0089584EC86BF8FEF90E04C
:10061000A0E0B0E006B607FC05C00197A109B1094A
:10062000C8F704C0892B8A2B8B2B11F083B1089556
:1006300080E0089584E886BF8FEF90E0A0E0B0E00E
:1006400006B607FC05C00197A109B109C8F704C0A7
:10065000892B8A2B8B2B11F083B1089580E00895AC
:10066000BF92CF92DF92EF92FF920F931F93CF939F
:10067000DF936623D1F1F52EE42EB62E182FCAE8AB
:10068000D0E088810E949E02812F0E94E80283E0D0
:100690008A95F1F70000888181600E949E020E2DEC
:1006A0001F2DEE24EA94EB0CF12CEFEFEE1AFE0A6C
:1006B000C0E0D0E0CB2CD12CF1E0CF1AD108CC1681
:1006C000DD0629F40E941A03F801808304C00E9409
:1006D0000403F801808321960F5F1F4FCE15DF05BD
:1006E00071F7CB2D0E94DB0201C0C0E08C2FDF919F
:1006F000CF911F910F91FF90EF90DF90CF90BF901F
:100700000895AB0161E00E9430030895EF92FF92DB
:100710000F931F93CF93DF936623D9F07A01162F9F
:10072000C82F80918A000E949E028C2F0E94E802AE
:10073000E7016FEF610F062F10E00F5F1F4F0E0DE7
:100740001F1D89910E94E802C017D107D1F70E94AE
:10075000DB02DF91CF911F910F91FF90EF900895F1
:10076000CF93DF931F92CDB7DEB76983AE014F5FA2
:100770005F4F61E00E9486030F90DF91CF91089553
:10078000FF920F931F93CF93DF931F92CDB7DEB7E6
:10079000F62E8A01BE016F5F7F4F0E94810321E028
:1007A00030E002C0220F331FFA94E2F79981292327
:1007B000F80120830F90DF91CF911F910F91FF904F
:1007C0000895EF92FF920F931F93CF93DF931F92A1
:1007D000CDB7DEB7442389F1F22E142F062FE82E71
:1007E0001982BE016F5F7F4F0E948103882329F128
:1007F000402F50E0411B51094F5F5F4F81E090E077
:1008000002C0880F991F1A95E2F70197042E02C0C3
:10081000880F991F0A94E2F72F2D30E002C0220FB3
:10082000331F4A95E2F7682F6095998169238223E7
:10083000682B69838E2D0E94B0030F90DF91CF91BA
:100840001F910F91FF90EF900895FF920F931F93C8
:10085000CF93DF931F92CDB7DEB7182F062FF42E5C
:10086000BE016F5F7F4F0E948103FF2051F061E066
:1008700070E002C0660F771F0A95E2F78981682B46
:100880000AC061E070E002C0660F771F0A95E2F7C8
:100890006095898168236983812F0E94B0030F903E
:1008A000DF91CF911F910F91FF90089540E066E096
:1008B0008BE60E94250408950E949A0283E08A959F
:1008C000F1F7000087EA91E60197F1F700C0000018
:1008D0000E94560483EC99E00197F1F700C00000F4
:1008E00021E043E062E08BE60E94E10323E043E085
:1008F00062E08AE10E94E10364E089E10E94B003C2
:1009000023E042E064E08BE10E94E10320E042E06A
:1009100064E08CE10E94E10308958F929F92AF9270
:10092000BF92CF92DF92EF92FF920F931F93CF93DC
:10093000DF934C015B016A01E9014FE850E06EE092
:100940008BE30E943003EFE8F0E02081818190E0AA
:10095000922BD4018D939C932281838190E0922BE2
:10096000D5018D939C932481858190E0922BD601B3
:100970008D939C932085818590E0922B9983888329
:100980002285838590E0922BD8018D939C932485BA
:10099000858590E0922BF70191838083DF91CF9141
:1009A0001F910F91FF90EF90DF90CF90BF90AF908D
:1009B0009F908F9008954F925F926F927F928F9247
:1009C0009F92AF92BF92CF92DF92EF92FF920F93DE
:1009D0001F93CF93DF93CDB7DEB7A4970FB6F894EC
:1009E000DEBF0FBECDBF6D877E878F87988B298B2B
:1009F0003A8B4B8B5C8BED8AFE8A0F8B188F20E035
:100A000030E0A901C601B5010E945B0B811117C03E
:100A100020E030E0A9016FA978AD89AD9AAD0E94C0
:100A20005B0B81110CC020E030E0A9016BAD7CAD07
:100A30008DAD9EAD0E945B0B882309F41AC2A601FE
:100A40009501C601B5010E94840C2B013C012FA920
:100A500038AD49AD5AADCA01B9010E94840C698311
:100A60007A838B839C839B01AC01C301B2010E94FA
:100A7000EF0A6D8F7E8F8F8F98A32BAD3CAD4DAD60
:100A80005EADCA01B9010E94840C698F7A8F8B8F89
:100A90009C8F29813A814B815C81C301B2010E9404
:100AA000EF0A2B013C01298D3A8D4B8D5C8DC301E2
:100AB000B2010E94EF0A0E94F70C2B013C019B013E
:100AC000AC01C601B5010E94600B69837A838B83F8
:100AD0009C83A30192016FA978AD89AD9AAD0E9464
:100AE000600B6D837E838F839887A30192016BAD2A
:100AF0007CAD8DAD9EAD0E94600B69877A878B8738
:100B00009C87609186007091870080918800909109
:100B1000890020917E0030917F00409180005091AB
:100B200081008090650090906600A0906700B09072
:100B30006800409082005090830060908400709024
:100B400085000E94840C6B017C01A3019201C50108
:100B5000B4010E94840C9B01AC01C701B6010E9444
:100B6000EE0A698F7A8F8B8F9C8F609165007091F0
:100B70006600809167009091680020918600309116
:100B80008700409188005091890080908200909069
:100B90008300A0908400B090850040907E0050902B
:100BA0007F0060908000709081000E94840C6B0137
:100BB0007C01A3019201C501B4010E94840C9B0138
:100BC000AC01C701B6010E94EF0A6D8F7E8F8F8F37
:100BD00098A3609165007091660080916700909184
:100BE0006800209165003091660040916700509147
:100BF000680080907E0090907F00A0908000B09070
:100C0000810040907E0050907F0060908000709046
:100C100081000E94840C20E030E040E05FE30E940D
:100C2000EE0A6B017C01A3019201C501B4010E948F
:100C3000840C9B01AC01C701B6010E94EF0A6B0155
:100C40007C019B01AC016D817E818F8198850E9422
:100C5000840C4B015C012D8D3E8D4F8D58A1698513
:100C60007A858B859C850E94840C9B01AC01C50113
:100C7000B4010E94EE0A69A37AA38BA39CA3298DD9
:100C80003A8D4B8D5C8D69857A858B859C850E941C
:100C9000840C4B015C01A701960169817A818B81EB
:100CA0009C810E94840C9B01AC01C501B4010E948F
:100CB000EE0A2B013C012D8D3E8D4F8D58A169818F
:100CC0007A818B819C810E94840C6B017C01298D2F
:100CD0003A8D4B8D5C8D6D817E818F8198850E94D0
:100CE000840C9B01AC01C701B6010E94EE0A4B01C6
:100CF0005C01C0907A00D0907B00E0907C00F09086
:100D00007D002DEC3CEC4CE45EE369A17AA18BA163
:100D10009CA10E94840C2AE83BE446E85CE30E9424
:100D2000840CA70196010E94EF0A60937A007093E9
:100D30007B0080937C0090937D00C0907600D090E3
:100D40007700E0907800F09079002DEC3CEC4CE4DA
:100D50005EE3C301B2010E94840C2AE83BE446E84A
:100D60005CE30E94840CA70196010E94EF0A609345
:100D70007600709377008093780090937900C0900C
:100D80007200D0907300E0907400F09075002DEC2C
:100D90003CEC4CE45EE3C501B4010E94840C2AE8FB
:100DA0003BE446E85CE30E94840CA70196010E94A4
:100DB000EF0A6093720070937300809374009093B5
:100DC000750020917A0030917B0040917C00509119
:100DD0007D006D857E858F8598890E94EF0A6D83E1
:100DE0007E838F83988720917600309177004091A1
:100DF00078005091790069897A898B899C890E9451
:100E0000EF0A6B017C0120917200309173004091D8
:100E10007400509175006D897E898F89988D0E942C
:100E2000EF0A69877A878B879C872D813E814F8166
:100E3000588569A17AA18BA19CA10E94EF0A6D87B8
:100E40007E878F87988BA7019601C301B2010E940C
:100E5000EF0A698B7A8B8B8B9C8B29853A854B8526
:100E60005C85C501B4010E94EF0A6D8B7E8B8F8B70
:100E7000988F2AE83BE446E05CE36D857E858F85AC
:100E800098890E94840C6D837E838F8398872AE8DB
:100E90003BE446E05CE369897A898B899C890E94FE
:100EA000840C69877A878B879C872AE83BE446E035
:100EB0005CE36D897E898F89988D0E94840C6D8793
:100EC0007E878F87988B8091650090916600A091B6
:100ED0006700B0916800898B9A8BAB8BBC8B80903C
:100EE000860090908700A0908800B0908900809143
:100EF000820090918300A0918400B09185008D8B39
:100F00009E8BAF8BB88F40907E0050907F0060909A
:100F1000800070908100C0906500D0906600E090E5
:100F20006700F0906800C501B40190582D813E81A2
:100F30004F8158850E94840C69837A838B839C83BC
:100F40002D893E894F89588D69857A858B859C8549
:100F50000E94840C9B01AC0169817A818B819C8108
:100F60000E94EE0A69837A838B839C83A30192019A
:100F70006D857E858F8598890E94840C9B01AC01CC
:100F800069817A818B819C810E94EE0AA70196017A
:100F90000E94EF0A6093650070936600809367007B
:100FA0009093680040907E0050907F006090800099
:100FB00070908100C0908600D0908700E0908800FB
:100FC000F090890029893A894B895C896D817E81FD
:100FD0008F8198850E94840C69837A838B839C839C
:100FE0002D893E894F89588D6D857E858F8598899D
:100FF0000E94840C9B01AC0169817A818B819C8168
:101000000E94EF0A69837A838B839C83A3019201F8
:1010100069857A858B859C850E94840C9B01AC0137
:1010200069817A818B819C810E94EE0AA7019601D9
:101030000E94EF0A60938600709387008093880077
:101040009093890040907E0050907F0060908000D7
:1010500070908100C0908200D0908300E090840066
:10106000F090850029893A894B895C8969857A8560
:101070008B859C850E94840C69837A838B839C83F7
:10108000A50194016D857E858F8598890E94840CC9
:101090009B01AC0169817A818B819C810E94EE0A5F
:1010A00069837A838B839C83A30192016D817E8106
:1010B0008F8198850E94840C9B01AC0169817A81A3
:1010C0008B819C810E94EF0AA70196010E94EF0A82
:1010D00060938200709383008093840090938500D6
:1010E000C0907E00D0907F00E0908000F090810062
:1010F00029893A894B895C896D857E858F85988998
:101100000E94840C2B013C01A501940169857A851C
:101110008B859C850E94840C9B01AC01C301B201AC
:101120000E94EF0A4B015C012D893E894F89588D41
:101130006D817E818F8198850E94840C9B01AC011A
:10114000C501B4010E94EE0AA70196010E94EF0AB0
:1011500060937E0070937F00809380009093810065
:10116000C0906500D0906600E0906700F090680045
:101170008090650090906600A0906700B090680035
:101180008091860090918700A0918800B09189009D
:101190008D839E83AF83B88780918600909187006E
:1011A000A0918800B091890089879A87AB87BC8716
:1011B0008091820090918300A0918400B09185007D
:1011C0008D879E87AF87B88B809182009091830036
:1011D000A0918400B0918500898B9A8BAB8BBC8BDE
:1011E00040907E0050907F00609080007090810061
:1011F00080917E0090917F00A0918000B09181004D
:101200008D8B9E8BAF8BB88FA5019401C701B60162
:101210000E94840C69837A838B839C8329853A8519
:101220004B855C856D817E818F8198850E94840CC1
:101230009B01AC0169817A818B819C810E94EF0ABC
:1012400069837A838B839C8329893A894B895C895A
:101250006D857E858F8598890E94840C9B01AC01E9
:1012600069817A818B819C810E94EF0A69837A83EC
:101270008B839C83A5019401C701B6010E94840C55
:101280006B017C0129853A854B855C856D817E816A
:101290008F8198850E94840C9B01AC01C701B60127
:1012A0000E94EF0A6B017C0129893A894B895C898C
:1012B0006D857E858F8598890E94840C9B01AC0189
:1012C000C701B6010E94EF0A6B017C012D893E899E
:1012D0004F89588DC301B2010E94840C9B01AC015F
:1012E000C701B6010E94EF0A0E94F70C6B017C0156
:1012F0006091650070916600809167009091680030
:10130000A70196010E94600B6093650070936600D0
:1013100080936700909368006091860070918700C9
:101320008091880090918900A70196010E94600B2E
:101330006093860070938700809388009093890063
:10134000609182007091830080918400909185006B
:10135000A70196010E94600B609382007093830046
:10136000809384009093850060917E0070917F004F
:101370008091800090918100A70196010E94600BEE
:1013800060937E0070937F00809380009093810033
:10139000A4960FB6F894DEBF0FBECDBFDF91CF91FC
:1013A0001F910F91FF90EF90DF90CF90BF90AF9083
:1013B0009F908F907F906F905F904F9008954F9285
:1013C0005F926F927F92AF92BF92CF92DF92EF9235
:1013D000FF920F931F93CF93DF93CDB7DEB72B9779
:1013E0000FB6F894DEBF0FBECDBF4FE850E060E00F
:1013F0008AE30E94C00380918F00811105C023E021
:101400002A95F1F70000F1CF4FE850E06EE08BE352
:101410000E943003EFE8F0E0808161810281338136
:101420003987148195819A876084718452844384BA
:10143000E484F58470E0782B072E000C880B990B60
:101440000E94D40B20E030E040E858E30E94840C76
:101450005B016C016F2D70E07E29635E7F4F072E6C
:10146000000C880B990B0E94D40B23E333E343E871
:1014700051E40E94600B24E33AEF4EE85CE30E94E3
:10148000840C69837A838B839C83642D70E0752937
:1014900069507109072E000C880B990B0E94D40B20
:1014A00023E333E343E851E40E94600B24E33AEF83
:1014B0004EE85CE30E94840C6D837E838F83988763
:1014C000672D70E07629665D7F4F072E000C880B34
:1014D000990B0E94D40B23E333E343E851E40E94C9
:1014E000600B24E33AEF4EE85CE30E94840C2B018E
:1014F0003C012A85622F70E0712B072E000C880BAF
:10150000990B0E94D40B20E030E040E858E30E94A1
:10151000840C9F938F937F936F933985632F70E033
:10152000CB01902B9B878A87BC01990F880B990B65
:101530000E94D40B20E030E040E858E30E94840C85
:101540009F938F937F936F93E980FA800B811C8127
:101550002D813E814F815885C301B2010E94DB0479
:101560000FB6F894DEBF0FBECDBF2B960FB6F89422
:10157000DEBF0FBECDBFDF91CF911F910F91FF90C6
:10158000EF90DF90CF90BF90AF907F906F905F9083
:101590004F9008951F920F920FB60F9211242F9320
:1015A0003F934F935F936F937F938F939F93AF93EB
:1015B000BF93EF93FF930E94DF09FF91EF91BF91DB
:1015C000AF919F918F917F916F915F914F913F91DB
:1015D0002F910F900FBE0F901F9018955058BB275A
:1015E000AA270E94060B0C944A0C0E943C0C38F06F
:1015F0000E94430C20F039F49F3F19F426F40C9418
:10160000390C0EF4E095E7FB0C94330CE92F0E94A3
:101610005B0C58F3BA17620773078407950720F02D
:1016200079F4A6F50C947D0C0EF4E0950B2EBA2FF0
:10163000A02D0B01B90190010C01CA01A0011124D8
:10164000FF27591B99F0593F50F4503E68F11A1684
:10165000F040A22F232F342F4427585FF3CF469515
:1016600037952795A795F0405395C9F77EF41F1637
:10167000BA0B620B730B840BBAF09150A1F0FF0F01
:10168000BB1F661F771F881FC2F70EC0BA0F621FED
:10169000731F841F48F4879577956795B795F795DD
:1016A0009E3F08F0B0CF9395880F08F09927EE0F72
:1016B0009795879508950E940F0C08F481E008958E
:1016C0000E94740B0C944A0C0E94430C58F00E9428
:1016D0003C0C40F029F45F3F29F00C94330C51117D
:1016E0000C947E0C0C94390C0E945B0C68F39923CB
:1016F000B1F3552391F3951B550BBB27AA2762170E
:101700007307840738F09F5F5F4F220F331F441F1A
:10171000AA1FA9F335D00E2E3AF0E0E832D091504E
:101720005040E695001CCAF72BD0FE2F29D0660F3B
:10173000771F881FBB1F261737074807AB07B0E87E
:1017400009F0BB0B802DBF01FF2793585F4F3AF084
:101750009E3F510578F00C94330C0C947E0C5F3F47
:10176000E4F3983ED4F3869577956795B795F7950A
:101770009F5FC9F7880F911D9695879597F90895F2
:10178000E1E0660F771F881FBB1F6217730784078E
:10179000BA0720F0621B730B840BBA0BEE1F88F79D
:1017A000E0950895E89409C097FB3EF490958095E4
:1017B000709561957F4F8F4F9F4F9923A9F0F92F17
:1017C00096E9BB279395F695879577956795B79595
:1017D000F111F8CFFAF4BB0F11F460FF1BC06F5F7B
:1017E0007F4F8F4F9F4F16C0882311F096E911C08D
:1017F000772321F09EE8872F762F05C0662371F0AE
:1018000096E8862F70E060E02AF09A95660F771FC1
:10181000881FDAF7880F9695879597F90895990F9D
:101820000008550FAA0BE0E8FEEF16161706E807AA
:10183000F907C0F012161306E407F50798F0621BCB
:10184000730B840B950B39F40A2661F0232B242BA0
:10185000252B21F408950A2609F4A140A6958FEFBF
:10186000811D811D089597F99F6780E870E060E011
:1018700008959FEF80EC089500240A941616170629
:1018800018060906089500240A9412161306140671
:1018900005060895092E0394000C11F4882352F0D4
:1018A000BB0F40F4BF2B11F460FF04C06F5F7F4F8C
:1018B0008F4F9F4F089557FD9058440F551F59F073
:1018C0005F3F71F04795880F97FB991F61F09F3F2D
:1018D00079F087950895121613061406551FF2CF56
:1018E0004695F1DF08C0161617061806991FF1CFA6
:1018F00086957105610508940895E894BB276627CD
:101900007727CB0197F908950E94970C0C944A0C05
:101910000E943C0C38F00E94430C20F0952311F0FB
:101920000C94330C0C94390C11240C947E0C0E94F2
:101930005B0C70F3959FC1F3950F50E0551F629FAC
:10194000F001729FBB27F00DB11D639FAA27F00D18
:10195000B11DAA1F649F6627B00DA11D661F829F3F
:101960002227B00DA11D621F739FB00DA11D621F24
:10197000839FA00D611D221F749F3327A00D611D41
:10198000231F849F600D211D822F762F6A2F112423
:101990009F5750409AF0F1F088234AF0EE0FFF1F56
:1019A000BB1F661F771F881F91505040A9F79E3FAD
:1019B000510580F00C94330C0C947E0C5F3FE4F3E3
:1019C000983ED4F3869577956795B795F795E79503
:1019D0009F5FC1F7FE2B880F911D9695879597F90C
:1019E000089519F416F40C94390C0C94370D0E94D8
:1019F000630CB8F39923C9F3B6F39F57550B87FFD0
:101A00000E94450D0024A0E640EA900180585695BA
:101A1000979528F4805C660F771F881F20F02617A3
:101A20003707480730F4621B730B840B20293129D8
:101A30004A2BA69517940794202531254A2758F755
:101A4000660F771F881F20F026173707480730F4E6
:101A5000620B730B840B200D311D411DA09581F786
:101A6000B901842F9158880F9695879508959F3FC7
:101A700031F0915020F4879577956795B795880F49
:101A8000911D9695879597F9089591505040660F4E
:101A9000771F881FD2F70895FB01DC010D9000200D
:101AA000E9F7119701900D920020E1F70895BB2707
:101AB0004A3031F4992322F4BDE2909581959F4FED
:101AC0000C94630DBB27FB015527AA27880F991F8C
:101AD000AA1FA41710F0A41B83955051B9F7A05D5D
:101AE000AA3308F0A95DA193009779F7B111B193DA
:101AF0001192CB010C947C0DDC01FC01672F7191DC
:101B00007723E1F7329704C07C916D9370836291E3
:0C1B1000AE17BF07C8F30895F894FFCF8C
:101B1C000880C000000000803F4D505536303530F5
:021B2C000000B7
:00000001FF
